:020000040000FA
:10000000442EFF3FFF3FFF3FF7000308F800830146
:100010000A08E2008A110A128C19BE290B19682BF2
:100020008B138312031362088A0078088300F70E8B
:10003000770E0900FF3FFF3FFF3FFF3FFF3FFF3FBE
:1000400082077934D634B034B134B234B334B434F2
:10005000B534B634B734B834B934D734D834BA3404
:10006000BB34BC34BD34D934DA347934793479349E
:10007000793479347934BE34BF34C034C134C234B5
:10008000C3347934793479347934793479347934BE
:1000900079347934793479347934DB34DC34DD34CF
:1000A000DE34DF34E034E134E234C434C534C63401
:1000B000C73479347934C834C934CD34E43479342C
:1000C0007934E534D43479347934E634E734E834B7
:1000D000E934EA34EB34EC34ED347934793479347E
:1000E0007934EE34EF34A534A634A734A834A934D7
:1000F000AA34793479348207563468348034A5348C
:10010000A5348207703470347D347D34A734A7342D
:1001100082078534853495349534CF34CF348207C3
:100120007934793479347934793479347934793467
:100130007934793479347934793479347934793457
:100140007934793479347934793479347934793447
:100150007934793479347934793479347934793437
:100160007934793479347934793479347934793427
:100170007934793479347934793479347934793417
:100180007934793479347934793479347934793407
:1001900079347934793479347934793479347934F7
:1001A000E534D43479347934793479347934793420
:1001B00079347934793479347934793479347934D7
:1001C000EE34EF34A534A634A734A834A934AA34C5
:1001D00079347934FF3FFF3FFF3FFF3FFF3FFF3F51
:1001E000FF3FFF3FFF3FFF3FFF3FFF3FFF3FFF3F1F
:1001F000FF3FFF3FFF3FFF3FFF3FFF3FFF3FFF3F0F
:1002000082070134013402340334043405340634E3
:10021000063407340834093409340A340B340B34F7
:100220000C340D340D340E340F340F3410341134BB
:100230001134123412341334143414341534153484
:1002400016341634173417341834193419341A3450
:100250001A341B341B341C341C341D341D341E341E
:100260001E341F341F3420342034213421342234EE
:1002700022342334233424342434253425342634BE
:1002800026342734273428342834293429342A348E
:100290002A342B342B342C342C342D342D342E345E
:1002A0002E342F342F342F34303430343134313431
:1002B0003234323433343334343434343534353402
:1002C00036343634373437343834383439343934D2
:1002D0003A343A343B343B343C343C343D343D34A2
:1002E0003E343E343F343F34403440344134413472
:1002F000423442344334443444344534453446343F
:100300004634473447344834483449344A344A340C
:100310004B344B344C344D344D344E344F344F34D5
:10032000503450345134523452345334543454349D
:1003300055345634573457345834593459345A3460
:100340005B345C345C345D345E345F34603461341F
:1003500061346234633464346534663467346834D9
:1003600069346A346B346C346D346E346F34703489
:100370007134733474347534763478347708F30018
:100380007808F4006208E400831203172630A800FE
:10039000F930A7000313F9018316941A022A0313F4
:1003A000831213082B11AC12AB108316141D592B9A
:1003B0008312AB14AC1DE129570893000000000024
:1003C000592B2C1FE8295709930000000000592BD6
:1003D0002C1AEF295530930000000000592B0030F3
:1003E0008A005308583C0318F7295930D3005308A2
:1003F00020208A018400000883139300000000007D
:10040000C000592B8312AB18092A2B196E2A2B1501
:100410005B2A2B15AC1E282A2C1A132AFE309300B7
:1004200000000000592B4008FF3C013EC00040087E
:100430009300000000005308373C0319E0125308F2
:10044000353C031960135308333C0319E013592B4F
:100450002C1A302AAA30930000000000AC16592B49
:1004600000308A00D30A5308583C0318392A5930FF
:10047000D3005308573C031D4F2A831629088312C3
:1004800003178D0083168C130C1483120C080313AE
:100490008313930000000000AC16C007592B5308CB
:1004A00020208A01840000088313930000000000CC
:1004B000AC16C007592B1308D300D40083161307BA
:1004C0008312D7002C12AC112C13D8011308013958
:1004D0000319592B5830D300D400592BD808031DC9
:1004E0007B2A5708FF3C013E130203192C16130800
:1004F000C100D707552B5808013C031D832A130858
:10050000C200D707552B5808023C031D552B57082E
:10051000FF3C013ED700130857020319932A2C17FA
:100520001308D700552BAC1500308A005408583CEE
:1005300003189C2A5930D40054088F208A01840063
:1005400041088000D40A00308A005408583C03183F
:10055000AB2A5930D40054088F208A018400420805
:1005600080005408553C031DB62AA716C108031D78
:10057000DA2AC208031DDA2A5408353C031DC42AAE
:100580008316C401C50183125408373C031DCC2ACD
:100590008316C601C70183125408333C031DD42AB5
:1005A0008316E101E20183125408313C031DDA2A6B
:1005B0002C15AC175408413C031DE12A8316CF16B5
:1005C000122B5408453C031DE82A8316A414122B51
:1005D0005408473C031DEF2A83162415122B540898
:1005E0003D3C031D052BC108031DF92AC208031950
:1005F000052BA81783164817831241088316CD00D0
:10060000831242088316E400122B5408493C031D50
:100610000C2B8316A415122B54084B3C031D1A2BCC
:1006200083162416831241088316CB0083124208D6
:100630008316CA00831254083B3C031D552BA81691
:10064000C11A2A2B8316201D272B481A2A2BC812C1
:10065000831287108312411B312B8316CD01E401D5
:10066000481383121F30C105831648088312C20045
:10067000C21AC116421B411741088316C800CF1A7F
:10068000552B48080739013A031D492B8312A71837
:100690004F2B83160C30D400E430E500552B831625
:1006A0002330D4002830E500552B83120313D80AD9
:1006B000592B8312941314138C1114168B13831259
:1006C000031364088A0074088300F30E730E090094
:1006D0007708F5007808F6006208E3008B120B112A
:1006E0008630810083168230810083128B1764006C
:1006F0006B0803197D2BEB03842B6C08031D822BE5
:10070000AC14842BEC03EB099F18842B3D081E02CC
:10071000BE00031CA32B0310BE0C0318BE0A03105B
:10072000BE0C0318BE0A0310BE0C0318BE0A031049
:10073000BE0C0318BE0A3E08BF07031CBD2BBD0A32
:100740000319BD09BD2BBE09BE0A0310BE0C031858
:10075000BE0A0310BE0C0318BE0A0310BE0C031819
:10076000BE0A0310BE0C0318BE0A3E08BF020318DF
:10077000BD2B0130BD02031CBD0103308A000030D7
:100780001F19013E9F19023E1F1A043E8207CF2BFC
:10079000132C222C2D2C2D2C2D2C2D2C2D2C1E08E9
:1007A000A60083161E0883120317DD000313A71883
:1007B000FD2B0317EE0A6E08053C0318E92BEE012A
:1007C00003132C148B130615000087168B17A9131F
:1007D000012C03131E08B03C031C012C9F149F180E
:1007E000EF2B1E08B03C031C012C2C148B13061598
:1007F000000087168B17A913012CA9170317EE0108
:100800000313E50A651C082C1F129F111F15322CBB
:100810004508BD004408BF001F129F151F11831615
:100820001F128312322C1E0883120317EA0083164C
:1008300003131E0883120317EB0003131F129F11EB
:100840001F11322C3D08C5003F08C4001F129F1124
:100850001F1183161F168312322C83129F121F1230
:100860009F111F110618472C000000000618472C86
:10087000061B5B2C00000000061B5B2C28102811B7
:1008800003171030EC002730ED0003135F2C061B1C
:100890005D2C00000000061B5D2CA718592C2810A9
:1008A000281D5F2C8316B01C5F2CB2158312AB156C
:1008B0005F2CAB155F2C28145F2C2814AB1183120E
:1008C0002918752C2818692CFA30AE000030AF00BA
:1008D000752C2E0803196E2CAE03752C2F08031DE2
:1008E000732C29147D2CAF03AE09291C7D2C281CE8
:1008F0002910FA30AE000030AF0032080319822C04
:10090000B203892C3308031D872C2915892CB303C6
:10091000B2095B0803198E2CDB03952C5C08031DC0
:10092000932C2817952CDC03DB09291AB12C6018AD
:100930009E2C6430B7001930B800B12C3708031969
:10094000A32CB703B12C3808031DAF2C291683162E
:10095000321583126430B7001930B800CA2CB803BE
:10096000B709291ECA2C601CBA2C6430B700193094
:10097000B800CA2C37080319BF2CB703CA2C380893
:10098000031DC82C29126430B7001930B800CA2CD6
:10099000B803B7093408031DCF2CA915D02CB40314
:1009A000A91AE52C861CD92CE230B5000430B6001B
:1009B000E52C35080319DE2CB503E52C3608031D9C
:1009C000E32CA916E52CB603B509A91EEF2C861851
:1009D000A912861EA912E230B5000430B600230821
:1009E0000319F42CA303032D2408031D012D2A1E33
:1009F000FB2C2A12FC2C2A16E230A3000430A4009F
:100A0000032DA403A3092A1F092D2A1E0D2DAA12A6
:100A1000122D2A1A102DAA12122D2A13AA16122DDF
:100A20002A17AA16071C162DAA17212DAA1F212D39
:100A3000AA13D50A031D212DD60A031D212DD50980
:100A4000D609AA1E322D0330560203182D2D550843
:100A5000E9005608EA006016302D6016E901EA0147
:100A6000D501D601A81F412DEE0A6E08FA3C0318E5
:100A7000432DA914EE01EF0A6F08133C0318432D10
:100A8000A813EE01EF018312A81C632D061C7A2D1A
:100A900000000000061C7A2D00000000061C7A2DC4
:100AA000831632128312A810AC101030EB002730DE
:100AB000EC00A71C7A2D2C187A2D8B130611000040
:100AC00087128B177A2D06187A2D00000000061861
:100AD0007A2D0000000006187A2D83163216831234
:100AE000A814A71C7A2D2C187A2D8B13061500003C
:100AF00087128B1703176C080319802DEC03882DC0
:100B00006D08031D862D03132815882DED03EC09B0
:100B10000313590803198E2DD903952D5A08031D67
:100B2000932D2816952DDA03D909A71CA72D2C186B
:100B30009F2D2818A72D2C1400002A1429102818DE
:100B4000A72DA91DA72D86142717A71027148B13CF
:100B5000831603171E080319AF2D9E03D52D1F08FA
:100B6000031DD32DBC309E0009309F000313600A83
:100B7000031DBE2D5F0A031DBE2DD52DDF0A0319EF
:100B8000E00A5708DB07031CCB2DDC0A031DCB2D25
:100B9000DD0A0319DE0A5808DC07031CD52DDD0A1F
:100BA0000319DE0AD52D9F039E098B1783120313A9
:100BB0002C18072E8316031724080319E12DA4030C
:100BC000072E2508031D052E7B30A4001330A50039
:100BD000A60A26083C3C031D072EA6010313AD0AF6
:100BE0000319AE0A0319AF0A0317A80A28083C3CE8
:100BF000031D072EA801A70A2708183C031D072E6E
:100C0000A701AA140313AD03072EA503A409831299
:100C10000313071A292E031727080319112EA703F8
:100C2000332E2808031D2F2E8312031394128316CC
:100C30009401071287118312071687153630940026
:100C4000130893018316071687158312AA112A1118
:100C50002B1003172630A800F930A700332E83127B
:100C60000317A803A7098316031383129F148B137A
:100C70008B160B118B138312031363088A007608FB
:100C80008300F50E750E090003138312A001A20163
:100C900028309500A10003178316900111106400FD
:100CA0008B13031383123F3085001E308600B9304A
:100CB000870083163F308500F93086009930870021
:100CC00083128301233084008001840A841F642EF0
:100CD000A03084008001840F6A2E831710308400B6
:100CE0008001840A841F702E923084008001840F5A
:100CF000762E831383169401B0309300831236301E
:100D000094008C118312863081008316823081001A
:100D100083120B118B101A089A01980183169801FF
:100D2000831290309800831640309900203098004C
:100D300010309F00831280309F00831603178901B3
:100D40000F30880083120313910196010030920046
:100D50000C30970083160711C730920083121215CA
:100D600083160B178B168C1532168312A814FA30C3
:100D7000AE000030AF006430B2000030B300643029
:100D8000B7001930B8000130B400E230B5000430CB
:100D9000B6000330BC00BB00AD00E230A30004305D
:100DA000A4003030D9007530DA000030A5000317F8
:100DB0001030EC002730ED0010309200103095001C
:100DC0008316BC309E0009309F00031383122C143D
:100DD000AC101030EB002730EC00C430DB000930E1
:100DE000DC00283095002030C500031783169000E2
:100DF000031383122714861D4F2E00000000861D4A
:100E00004F2E00000000861D4F2E051E0B2FAA1529
:100E1000831693148312851E112F2A15831613151A
:100E20008312891D172F2B14831693158312200804
:100E3000950083121F149F148B17031383121D3008
:100E400045020318262F0030E8002C2FE800BC3C98
:100E500003182C2FBC30E80001308A0068080021FC
:100E60008A01D1001D305E020318392F0030E800DE
:100E70003F2FE800BC3C03183F2FBC30E800013096
:100E80008A00680800218A01DD00A71C8A2F281F1C
:100E90008A2F8316F00100308A0070087B208A01B7
:100EA0007102031C5A2FF00A7008043C03184B2FE0
:100EB0000530F00083126018742F00308A0083160A
:100EC000700888208A017202031C702F0317AC0A75
:100ED0002C08C83C03188A2FAB010313831260143B
:100EE00003178316AC018A2F00308A00831670081E
:100EF00081208A0172020318872F0317AB0A2B087F
:100F0000C83C03188A2FAC01031383126010031727
:100F10008316AB018A150028FF3FFF3FFF3FFF3FCD
:100F2000FF3FFF3FFF3FFF3FFF3FFF3FFF3FFF3FD1
:100F3000FF3FFF3FFF3FFF3FFF3FFF3FFF3FFF3FC1
:100F4000FF3FFF3FFF3FFF3FFF3FFF3FFF3FFF3FB1
:100F5000FF3FFF3FFF3FFF3FFF3FFF3FFF3FFF3FA1
:100F6000FF3FFF3FFF3FFF3FFF3FFF3FFF3FFF3F91
:100F7000FF3FFF3FFF3FFF3FFF3FFF3FFF3FFF3F81
:100F8000FF3FFF3FFF3FFF3FFF3FFF3FFF3FFF3F71
:100F9000FF3FFF3FFF3FFF3FFF3FFF3FFF3FFF3F61
:100FA000FF3FFF3FFF3FFF3FFF3FFF3FFF3FFF3F51
:100FB000FF3FFF3FFF3FFF3FFF3FFF3FFF3FFF3F41
:100FC000FF3FFF3FFF3FFF3FFF3FFF3FFF3FFF3F31
:100FD000FF3FFF3FFF3FFF3FFF3FFF3FFF3FFF3F21
:100FE000FF3FFF3FFF3FFF3FFF3FFF3FFF3FFF3F11
:100FF000FF3FFF3FFF3FFF3FFF3FFF3FFF3FFF3F01
:1010000003138312A71812282630A0000317831693
:10101000111821281114031383122630950083160A
:10102000CE0021280317831611100317831610080A
:1010300003138312A00020082202031C2128220887
:10104000A00003138316481F2E288312200883163E
:101050006302031C312863088312A0008316301337
:101060003228301783121508283C031842288316AB
:101070004308033C031C4228031D4B284208E83C5C
:1010800003184B288312200883164E02031C4B289A
:101090004E088312A00083121508200203196D2840
:1010A0001508200203186528950803196D280317F1
:1010B000DF0ADF08031D6D28E00A60080A3C0318F8
:1010C0006D28E001031395036D281508C73C03182C
:1010D0006C28C73095006D28950A83120313861972
:1010E0008028000000008619802800000000861972
:1010F00080281508A0000317831611148A114F2E9B
:1011000003138312E0197529E01583160317A30151
:101110002A108B131F30B9258316A2001E30B92563
:1011200083160313AC001930B92583160313AD00E1
:101130001A30B92583160313AE001B30B925831668
:101140000313AF008312861FAC280000861FAC2853
:101150000000861FAC28C228831203178317503063
:1011600084002030CE004E08B9258000CE0A840AC3
:101170004E082D3C031DB328A515831203138613B7
:1011800083168613831603170030D0000130D10078
:10119000B230D2008030D3000030D4000130D5000E
:1011A0006C30D6008030D7000030D8000130D90034
:1011B0004530DA008030DB000030DC000130DD003B
:1011C0000630DE008030DF00FC30E0000030E1005F
:1011D0002D30E2000030E3009730E4000230E500FB
:1011E0009130E6000330E7006A30E8000430E9009F
:1011F0006C30EA000E30EB00831203170030AD00B4
:101200000130AE000430AF000030B0000130B1005A
:101210000430B2000030B3000130B4000030B5003B
:101220000030C7000130C8008630C9004930B60020
:101230000030B7005E30B8000030B9003530CA0069
:101240000130CB000030BA000130BB000230BC00DE
:101250000030BD000130BE008130BF000030C00052
:101260000130C1008130C2003630C3000030C400FC
:10127000CA30C5000030C6008313831603131C3028
:10128000A700A80127080317A000031328080317C5
:10129000A100C62583160313A7018B178316031716
:1012A0007B30A4001330A50003132130D60000309A
:1012B000E6000A30E700C030E8002130E9000030E5
:1012C000EA000B30EB000030EC000D30ED00803018
:1012D000EE000C30EF00C030A5001230A6008312E3
:1012E00003172630A800F930A70083120313640007
:1012F0008B17271CD429061ED429291CD429861E05
:10130000D429061CD42986102C148B130615000032
:1013100087168B176430B2000030B3002911C43037
:10132000DB000930DC002813A912E230B5000430DC
:10133000B60029126430B7001930B80060100317E6
:101340008316AB01AC0103138312A812AB1BAD29AA
:1013500087108316C8128312A816AA10AB11AB12FD
:101360002B132A148316B201B301B401B501AB01EA
:10137000A11024108316CF1AC92948080739013A49
:10138000031DCF298B132330D4002830E5008B17A1
:10139000CF298B135308D4005208E5008B17831212
:1013A000AB1327132710A714A71C8D2A64008B17D3
:1013B000861AE82900000000861AE82900000000CB
:1013C000861AE8292C1400002717A710A715A72AAA
:1013D000061A082A00000000061A082A0000000069
:1013E000061A082A2C140000AA142B178316B2140C
:1013F0008312A91D1E2A86142717A7102715031765
:1014000083162A140130A1001D30A000C6258D2AA4
:10141000291E1E2A2C180E2A2C140000A91D1E2A73
:1014200086142B172717A7102715031783162A14BE
:101430000130A1001D30A000C6258D2AAB1E382A20
:10144000281F382A2C18292A2C1400008316B215BC
:101450008312A91D382A86142717A71027150317EA
:1014600083162A140130A1001D30A000C6258D2A44
:10147000AB1D522A281F522A2C18432A2C14000074
:101480008316B2158312A91D522A86142717A71096
:101490002715031783162A140130A1001D30A00060
:1014A000C6258D2A83164F1B6F2A8312281E6F2A8A
:1014B0002C185F2A2C140000831632178312A91DE2
:1014C0006F2A86142B172717A710271503178316C3
:1014D0002A140130A1001D30A000C6258D2A8312D8
:1014E0008B13AA188D2A2C1C8C2A291C8C2AA91E25
:1014F0008C2A291A8C2A281F7D2A061C8C2A000077
:101500000000061C8C2AA91F8C2A2A102C108B1371
:101510000611000087128B178B17031383128B178A
:10152000271DA52A6400061CA32A861EA32AAB1A1F
:10153000A52AAB19A52A2B1BA52AF430AE00013031
:10154000AF002910AB1727112714A71DAD2A64007F
:10155000A91DAD2A8614A7112714031783162A186C
:10156000042B03138312A71CFB2A8B132608FA00F3
:1015700003175D08FB008B170310FA0CFB0C03101C
:10158000FA0CFB0C0310FA0CFB0C0310FA0CFB0C0E
:101590000310FA0CFB0C0310FA0CFB0C7B08E7079A
:1015A0000318E80A7A08E807E90A691F042BE90129
:1015B0006708FB006808FA00E701E8010310FA0C6D
:1015C000FB0C0310FA0CFB0C0310FA0CFB0C0310C1
:1015D000FA0CFB0C1E30FB020318F22AFA0803195E
:1015E000FB2AFA038B137B0883160313BA007A08CD
:1015F000BB008B17042B03178312E701E801E901F5
:1016000003138316BA01BB0103138312A71C232BF8
:10161000831612308312FE001508FD007B257A0820
:1016200083164302831203191A2B0318232B281E37
:10163000292B2B2B7B088316420283120318232BA2
:10164000281E292B2B2B83123030D9007530DA005D
:10165000281283122D2B8316321783128312AC1C8F
:101660004E2B463051020318492B51083C3C031CB9
:101670004E2B45080F3C0318492B1A304502031C1A
:101680004E2BAB12AB194E2BA7184E2B8316B21153
:101690004E2BAB16A71C4E2B8316B21583128B1341
:1016A000831632084E39031D572B32105E2B4F1F05
:1016B0005D2B32084039031D5E2B32148B178312C9
:1016C0005108FD004030FE007B2583168B137A08FD
:1016D000BF007B08BE008B1783125D08FD00403001
:1016E000FE007B2583168B137A08C1007B08C0009F
:1016F0008B178312AC1CAB2BAB1A912B51088316A2
:1017000003172E0283120313031C912B8316031756
:1017100048088312031351020318932B83163412C3
:10172000932B831634168312AB19A92B5D088316ED
:101730000317120283120313031CA92B831603172A
:101740001308831203135D020318AB2B8316B41224
:10175000AB2B8316B416831632082B060319B22B53
:101760008312A81283163208AB008312861EBB2B8D
:1017700083163015BD2B8316301183122C1CC32BFE
:1017800083163010C52B8316301483128316B208CB
:10179000031DCC2BA010D02B3208103A031DA0142F
:1017A00083128316B408031DD72B2011D82B2015C4
:1017B00083128312601EEC2B8B136908FD007830B6
:1017C000FE007B257A088316C30083127B088316EC
:1017D000C2008B178312FD2B8316CF1B752C83122F
:1017E000A819F82B24080939031D752CA815FD2B01
:1017F000240809390319752CA811A91C092C0317F1
:10180000A60A2608053C03180D2CA6010313A910EF
:101810000D2C15082002031D752C03138316481F79
:10182000432C83120317FF30DF000B30E00003135B
:10183000831643086402031C3D2C031D302CCF1774
:1018400042084D020319472C031C472CCF13831267
:101850000317A90A2908323C0318472CA9010313CE
:10186000831220088316E300CF13E30A6308C83C01
:101870000318472CC830E300472C8316E308031DE8
:10188000E303CF17472CE301E401CD01CF1303138A
:101890008316C308031D013043025402031C672C46
:1018A000031D532C752C83120317FF30DF000B3000
:1018B000E0000313831220088316CF13CE00CE0A54
:1018C0004E08C83C0318752CC830CE00752C831206
:1018D0000317FF30DF000B30E000031383122008F2
:1018E0008316CF17CE00031DCE038312A71EB12C83
:1018F000A71203138316CF19862C20302702031C4E
:10190000862C27082D3C031C862CB12C2708031796
:10191000A000031328080317A100C62503132708F6
:101920001C3C031DA22CCF1183120317A51583168F
:10193000031328084B3C031DB12CCF15831203174A
:10194000A511B12C031327081E3C031DAA2C28083F
:10195000AC00B12C27081F3C031DB12C280803172D
:10196000A20083160313321A0D2D8312AC1C0D2D09
:1019700083166608FB006708FA00C030FB07031CEB
:10198000C82CFA0AFA08031DC82CFF30FA00FB0025
:101990008316031367083702031CE12C031DD42CA4
:1019A00066083602031CE12C37087A02031CDF2C80
:1019B000031DE22C36087B02031CDF2CE22CB41042
:1019C000E22CB414831603136808FB006908FA00BC
:1019D000C030FB020318F32CFA037A08FF3C031D06
:1019E000F32CFA01FB018316031337086902031C69
:1019F0000C2D031DFF2C36086802031C0C2D7A08E1
:101A00003702031C0A2D031D0D2D7B083602031C13
:101A10000A2D0D2D34100D2D3414831603138B1342
:101A2000B010321EB0148B1783160317AA1C2E2D6C
:101A3000AA1003132D080317A1001930A000C62512
:101A400003132E080317A1001A30A000C6250313A4
:101A50002F080317A1001B30A000C6252A1C782DD3
:101A60002A19462D2A152E302202031D392DE83061
:101A70003B2D18302202B9254E3983160313320547
:101A8000031D6F2DAC0A0317AA15AA1403178B1395
:101A9000AC30230784000008A1008B17220823071D
:101AA000A000C625A30A23081D3C0318782DA30116
:101AB0002A102A11AA1D632DAA111E30A207031C89
:101AC000632D2E30A2002208A1001F30A000C625E1
:101AD00003132C080317A1001E30A000C62583168F
:101AE00003170030A1001D30A000C6252A102A11BE
:101AF0008A110A1600280310FA01FB010830FC00C5
:101B00007D080310FE0C0318FA07FA0CFB0CFC0B03
:101B1000822D08009901031010309D009C0D9B0D33
:101B20009A0D990D1E081A0203189D2D9800013078
:101B30001902031C9E2D990018089A009D0B8E2DEA
:101B40009C0D9B0D08002510A51021081F020319EC
:101B5000AD2D0318B52D031CB82D22082002031942
:101B6000B72D0318B52D031CB82D2514B82DA514B9
:101B70000800831603178C18BB2D831203178D00E2
:101B800083168C130C1483120C0808008316031799
:101B90008C18C82D8B13200883128D008316210802
:101BA00083128C0083168C130C1555308D00AA30CF
:101BB0008D008C140C118B17031383121A089A01D1
:101BC0009801831698018312903098008316403054
:101BD000990020309800031783160800FF3FFF3F4D
:101BE000FF3FFF3FFF3FFF3FFF3FFF3FFF3FFF3F05
:101BF000FF3FFF3FFF3FFF3FFF3FFF3FFF3FFF3FF5
:101C0000FF3FFF3FFF3FFF3FFF3FFF3FFF3FFF3FE4
:101C1000FF3FFF3FFF3FFF3FFF3FFF3FFF3FFF3FD4
:101E000082070034003400340034003400340034DD
:101E10000034003401340134023402340334033416
:101E200004340434053405340634063406340734E7
:101E300007340734083408340834083408340934C3
:101E400009340A340A340B340B340D340E34103494
:101E50001134133414341634173419341A341B342F
:101E60001D341F34213423342534263427342834B8
:101E70002A342C342E34303432343434363438343A
:101E800038343A343C343E344034413443344534BD
:101E9000473448344A344C344D345034513453343C
:101EA00055345734583459345A345B345C345E34C6
:101EB0005F34603461346234633465346734683469
:101EC00069346B346D346F347034713473347534F9
:101ED00077347834773479347B347D347F3480348C
:101EE000823484348634883489348B348D348F340E
:101EF000903491349234933495349734983499349F
:101F00009B349D349F34A034A134A334A534A7342A
:101F1000A834A934AB34AD34AE34AF34B034B034BB
:101F2000B034B034B034B034B034B034B034B03491
:101F3000FF3FFF3FFF3FFF3FFF3FFF3FFF3FFF3FB1
:101F4000FF3FFF3FFF3FFF3FFF3FFF3FFF3FFF3FA1
:101F5000FF3FFF3FFF3FFF3FFF3FFF3FFF3FFF3F91
:101F6000FF3FFF3FFF3FFF3FFF3FFF3FFF3FFF3F81
:101F7000FF3FFF3FFF3FFF3FFF3FFF3FFF3FFF3F71
:101F8000FF3FFF3FFF3FFF3FFF3FFF3FFF3FFF3F61
:101F9000FF3FFF3FFF3FFF3FFF3FFF3FFF3FFF3F51
:101FA000FF3FFF3FFF3FFF3FFF3FFF3FFF3FFF3F41
:101FB000FF3FFF3FFF3FFF3FFF3FFF3FFF3FFF3F31
:101FC000FF3FFF3FFF3FFF3FFF3FFF3FFF3FFF3F21
:101FD000FF3FFF3FFF3FFF3FFF3FFF3FFF3FFF3F11
:101FE000FF3FFF3FFF3FFF3FFF3FFF3FFF3FFF3F01
:101FF000FF3FFF3FFF3FFF3FFF3FFF3FFF3FFF3FF1
:1020000083120313601E4A28A71807284A2851087C
:102010003B3C031C23285108393C031C1B28510856
:10202000353C031836285108373C03182D28031770
:102030008312EF014A2803178312EF0A6F08193C35
:1020400003184A28EF0103138312A20A2208C83C8E
:1020500003184A28C830A2004A2803178312EF0A3F
:102060006F08643C03184A28EF013E2803178312C7
:10207000EF0A6F080A3C03184A28EF010313831282
:10208000A20803194A28A2032208283C031C4A2854
:102090002830A20083120313601E9428A718512829
:1020A00094285D08583C031C6D285D08553C031CB2
:1020B00065285D084E3C031880285D08513C0318D4
:1020C000772803178316B001942803178316B00AE4
:1020D00030083C3C03189428B00103138312A10A72
:1020E0002108C83C03189428C830A100942803177D
:1020F0008316B00A3008F03C03189428B0018828F1
:1021000003178316B00A3008283C03189428B0013E
:1021100003138312A10803199428A1032108283C62
:10212000031C94282830A1000313831221080317ED
:1021300083169000031383128C1E07291A08A5002A
:10214000611A0729611B07296118B428E118DE28E4
:10215000493A031961142508563A0319E11461112B
:10216000E1116112611307296119BB28343A031D7B
:102170006110611507296608053C0319CD288B13EA
:1021800046306607840025088000031783129707EE
:1021900003138312E60A8B170729250803178312F6
:1021A0001706031383120319611661106111E6010A
:1021B000031783129701031383120729E119E528F6
:1021C000343A031DE110E11507296608063C03199E
:1021D000F7288B134B30660784002508800003170F
:1021E0008312960703138312E60A8B170729250823
:1021F0000317831216060313831203196117E110E4
:10220000E111E601031783129601031383128B1762
:10221000A71B7B29611A3329611F55294E08031713
:102220008316B200031383124D0803178316B300FD
:10223000031383124C0803178316B400031383128D
:102240004B0803178316B500B701031383124F0819
:1022500003178316B8009A25031383126113E1173D
:102260005008DE005529490803178316B2000313EE
:102270008312480803178316B30003138312470819
:1022800003178316B400031383124608031783163B
:10229000B500B701031383124A0803178316B80069
:1022A0009A25031383126112E116E11A5929E11FDD
:1022B000612BA71B7B29A71703178316B308031DE0
:1022C0006C29B408031D6C293508013C031C6C29DA
:1022D000C201C301C4019A293308BF00C2003408F7
:1022E000C000C3003508C100C4000310C20CC30CF9
:1022F000C40C0E30C500031783163F08B200400817
:10230000B3004108B4004208B7004308B8004408CD
:10231000B90080263408C4070318C30A3308C3076A
:102320000318C20A3208C2070310C20CC30CC40C43
:10233000C50B612B031383128B17A713E11AF7291F
:10234000E11F612B031783164408831291070318BA
:10235000900A8316430883129007920BF3291030DA
:1023600092000310900C910C0310900C910C031030
:10237000900C910C0310900C910C10088316B20075
:10238000831211088316B3000C30B7007730B80001
:1023900062273308FA003408FB0083129001910190
:1023A000031783162A18F329031383168B137A084D
:1023B000B7007B08B6008B170310FB0DFA0DFB0D61
:1023C000FA0DFB0DFA0DFE30031C7A08D100370818
:1023D000FA003608FB000310FB0DFA0DFB0DFA0D99
:1023E0007A080317980003138312E113612B031774
:1023F00083164408831294070318930A831643082C
:1024000083129307950B5E2B103095000310930CED
:10241000940C0310930C940C0310930C940C031065
:10242000930C940C1308FA001408FB008312031792
:10243000A51D402BA03071020318292A58088316C5
:10244000B200831257088316B30083125908CC00D8
:10245000332A55088316B200831254088316B3003A
:1024600083125608CC0083167A08B7007B08B800A0
:1024700062278312CC1B482A831633088312FA0082
:102480008316340883124C07FB000318FA0A5B2AF0
:10249000CC13831633088312FA004C0883163402D7
:1024A0008312FB0003185B2AFA08031D5A2AFA015B
:1024B000FB015B2AFA0383120317A0307102031891
:1024C000AB2A7A083702031C762A031D6B2A7B0885
:1024D0003602031C762A2E088316B20083122D08BA
:1024E0008316B30083122F08CC00F22A7A0839022F
:1024F000031C8B2A031D802A7B083802031C8B2AAD
:1025000031088316B200831230088316B300831299
:102510003208CC00F22A7A084B02031CA02A031DC1
:10252000952A7B084A02031CA02A34088316B200AD
:10253000831233088316B30083123508CC00F22AC5
:1025400048088316B200831247088316B30083122B
:102550004908CC00F22A7A08003C031CBE2A031D5D
:10256000B52A7B081A3C031CBE2A01308316B20030
:102570000030B30083120530CC00F22A7A084402FE
:10258000031CD32A031DC82A7B084302031CD32A39
:102590003B088316B20083123A088316B3008312F5
:1025A0003C08CC00F22A7A084602031CE82A031DE4
:1025B000DD2A7B084502031CE82A3E088316B20088
:1025C00083123D088316B30083123F08CC00F22A21
:1025D00041088316B200831240088316B3008312A9
:1025E0004208CC0083167A08B7007B08B80062273F
:1025F0008312CC1B072B831633088312FA00831631
:10260000340883124C07FB000318FA0A1A2BCC1368
:10261000831633088312FA004C088316340283129F
:10262000FB0003181A2BFA08031D192BFA01FB01F2
:102630001A2BFA03031783129301940183120317D1
:10264000A0307102031C402BFA08031D402B7B08AD
:10265000453C031C402B5C08CC00CC1B342B4C08A5
:10266000FB070318FA0A402BCC134C08FB02031893
:10267000402BFA08031D3F2BFA01FB01402BFA0304
:102680000317831293019401031783162A185E2BF4
:10269000031783168B137B08C9007A08CA008B17AF
:1026A0000310FB0DFA0DFB0DFA0DFB0DFA0DFB0DE2
:1026B000FA0DFB0DFA0DFB0DFA0D7A0803138312C8
:1026C000E112031383128B17031783162A18D52CD4
:1026D00003138312A71CC92C03178B136A08FA0073
:1026E0006B08FB008B170310FA0CFB0C0310FA0CA1
:1026F000FB0C0310FA0CFB0C0310FA0CFB0C031080
:10270000FA0CFB0C0310FA0CFB0C7B08E407031813
:10271000E50A7A08E507E60A661FD52CE601640893
:10272000FB00DE006508FA0083120313F200831237
:102730000317E401E501831203170310FA0CFB0CE5
:102740000310FA0CFB0C0310FA0CFB0C7A08E200E5
:102750007B08E1000310FA0CFB0C0310FA0CFB0CD5
:102760006108FB070318FA0A6208FA0783120317C5
:10277000A51DA22C51088316B2008312500883169F
:10278000B300831253088316ED0083125208831698
:10279000EC007A08B7007B08B8006227ED1BD92B44
:1027A00033086D07FA0034086C07FB000318FA0AB7
:1027B000EE2BED136D083302FA000318E22BFA0139
:1027C000FB01EE2B6C083402FB000318EE2BFA0819
:1027D000031DED2BFA01FB01EE2BFA038312031705
:1027E00083167A086502031C042C031DFB2B7B084F
:1027F0006402031C042C5108B2005008B3005308B3
:10280000ED005208EC00452C7A086702031C172CD7
:10281000031D0E2C7B086602031C172C5508B20002
:102820005408B3005708ED005608EC00452C7A0810
:102830006902031C2A2C031D212C7B086802031C3F
:102840002A2C5908B2005808B3005B08ED005A085A
:10285000EC00452C7A086B02031C3D2C031D342C24
:102860007B086A02031C3D2C5D08B2005C08B300C3
:102870005F08ED005E08EC00452C6108B2006008BE
:10288000B3006308ED006208EC007A08B7007B082B
:10289000B8006227ED1B552C33086D07FA00340889
:1028A0006C07FB000318FA0A6A2CED136D0833025B
:1028B000FA0003185E2CFA01FB016A2C6C08340242
:1028C000FB0003186A2CFA08031D692CFA01FB01AE
:1028D0006A2CFA03831603177A086702031CA22CDA
:1028E000031D762C7B086602031CA22C83125B0856
:1028F0008316ED0083125A088316EC007A08B300A1
:102900007B08B400ED1B8D2C33086D07FA003408EA
:102910006C07FB000318FA0AA22CED136D083302B2
:10292000FA000318962CFA01FB01A22C6C08340261
:10293000FB000318A22CFA08031DA12CFA01FB01CD
:10294000A22CFA03831603137A08003C031CB72C4D
:10295000031DAE2C7B08BF3C031CB72C8B13BD01A1
:10296000C030BC00031383168B174F16C02C8B137B
:102970007B0883160313BC007A08BD008B174F1227
:1029800083160310FB0DFA0D7A080317AD0003132D
:10299000D52C03178312E401E501E6010313831626
:1029A000BC01BD010317AD01B22C031783162A1811
:1029B000F82C03138312A71CF52C831647083D023D
:1029C000031CF82C3D084706031DEA2C3C08460270
:1029D0000318F82C8312E01AF82C83168B133C088A
:1029E000C6003D08C7008B17F82C8316C601C70127
:1029F00003138316B01C1C2D37080317B2000313F2
:102A000036080317B3004A08B7004908B800622720
:102A10000310B20CB30CB40C0310B20CB30CB40C16
:102A20000310B20CB30CB40C8B1333080313A200C5
:102A3000031734080313D0008B17031783162A18C3
:102A4000572D03138312A71C532D2C18532D8316B7
:102A50003B080317B20003133A080317B30003132C
:102A60003D080317B70003133C080317B80062279B
:102A70000310B40DB30DB20D0310B40DB30DB20DB0
:102A80008B13B208031D4B2D3308243C031C4B2D24
:102A90002430B300B20132080313DA0003173308FD
:102AA0000313D900572D03138316D901DA01031339
:102AB0008316B01C962DA208031D722D5008323CBF
:102AC000031C722D632D8B134F15A2013230D000E1
:102AD0008B1303174A080313B9000317490803139C
:102AE000B8007C2D8B134F1103174A080313B9004C
:102AF000031749080313B8008B1722085A02031C56
:102B0000922D031D8A2D59085002031C8A2D03198A
:102B10008A2D922D5A08A2005908D0000310D00A1D
:102B20000319A20A2208D8005008D7008B178A156B
:102B30000A160028BB01BC01BA01320DBC0D3808D1
:102B4000BC023708031C370FBB020301031C013012
:102B5000BA02B20D0730BE00320DBC0DBB0DBA0D6E
:102B60003808321CBD2DBC023708031C370FBB02CE
:102B70000301031C0130BA02C62DBC073708031835
:102B8000370FBB07030103180130BA07B20DBE0BA4
:102B9000AC2D330DBC0DBB0DBA0D3808321CDA2D2F
:102BA000BC023708031C370FBB020301031C0130B2
:102BB000BA02E32DBC0737080318370FBB07030120
:102BC00003180130BA07B30D0730BE00330DBC0D3A
:102BD000BB0DBA0D3808331CF72DBC023708031C97
:102BE000370FBB020301031C0130BA02002EBC07E1
:102BF00037080318370FBB07030103180130BA0762
:102C0000B30DBE0BE62D340DBC0DBB0DBA0D38084F
:102C1000331C142EBC023708031C370FBB02030100
:102C2000031C0130BA021D2EBC0737080318370FEA
:102C3000BB07030103180130BA07B40D0730BE000B
:102C4000340DBC0DBB0DBA0D3808341C312EBC023E
:102C50003708031C370FBB020301031C0130BA0203
:102C60003A2EBC0737080318370FBB0703010318B8
:102C70000130BA07B40DBE0B202E350DBC0DBB0DB7
:102C8000BA0D3808341C4E2EBC023708031C370F0F
:102C9000BB020301031C0130BA02572EBC073708E0
:102CA0000318370FBB07030103180130BA07B50D2E
:102CB0000730BE00350DBC0DBB0DBA0D3808351CF4
:102CC0006B2EBC023708031C370FBB020301031C29
:102CD0000130BA02742EBC0737080318370FBB0740
:102CE000030103180130BA07B50DBE0B5A2E351873
:102CF0007F2E3808BC0737080318370FBB0700348E
:102D0000BB01BC01BD01BA01320DBD0D3908BD02C8
:102D10003808031C380FBC023708031C370FBB02EE
:102D20000301031C0130BA02B20D0730BE00320DA0
:102D3000BD0DBC0DBB0DBA0D3908321CAD2EBD0248
:102D40003808031C380FBC023708031C370FBB02BE
:102D50000301031C0130BA02BA2EBD07380803185C
:102D6000380FBC0737080318370FBB0703010318D8
:102D70000130BA07B20DBE0B972E330DBD0DBC0D41
:102D8000BB0DBA0D3908321CD32EBD023808031C06
:102D9000380FBC023708031C370FBB020301031CAA
:102DA0000130BA02E02EBD0738080318380FBC07FF
:102DB00037080318370FBB07030103180130BA07A0
:102DC000B30D0730BE00330DBD0DBC0DBB0DBA0DEC
:102DD0003908331CF92EBD023808031C380FBC0219
:102DE0003708031C370FBB020301031C0130BA0272
:102DF000062FBD0738080318380FBC07370803181B
:102E0000370FBB07030103180130BA07B30DBE0B20
:102E1000E32E340DBD0DBC0DBB0DBA0D3908331CAE
:102E20001F2FBD023808031C380FBC023708031CD3
:102E3000370FBB020301031C0130BA022C2FBD0760
:102E400038080318380FBC0737080318370FBB07BB
:102E5000030103180130BA07B40D0730BE00340D6A
:102E6000BD0DBC0DBB0DBA0D3908341C452FBD027C
:102E70003808031C380FBC023708031C370FBB028D
:102E80000301031C0130BA02522FBD073808031892
:102E9000380FBC0737080318370FBB0703010318A7
:102EA0000130BA07B40DBE0B2F2F3418612F39082B
:102EB000BD0738080318380FBC0737080318370F49
:102EC000BB070034B401B5013208C6003308C7009F
:102ED0000830BE00B80C03187A2FBE0B6A2FBE0054
:102EE000B70C0318782FBE0B702FB201B30100345A
:102EF0000310952F0310852FB80C031C852F47084E
:102F0000B30746080318460FB207B20CB30CB40C53
:102F1000BE0B7C2F0830BE00B70C031C952F470852
:102F2000B30746080318460FB207B20CB30CB40C33
:102F3000B50CBE0B8C2F0034FF3FFF3FFF3FFF3F20
:102F4000FF3FFF3FFF3FFF3FFF3FFF3FFF3FFF3F91
:102F5000FF3FFF3FFF3FFF3FFF3FFF3FFF3FFF3F81
:102F6000FF3FFF3FFF3FFF3FFF3FFF3FFF3FFF3F71
:102F7000FF3FFF3FFF3FFF3FFF3FFF3FFF3FFF3F61
:102F8000FF3FFF3FFF3FFF3FFF3FFF3FFF3FFF3F51
:102F9000FF3FFF3FFF3FFF3FFF3FFF3FFF3FFF3F41
:102FA000FF3FFF3FFF3FFF3FFF3FFF3FFF3FFF3F31
:102FB000FF3FFF3FFF3FFF3FFF3FFF3FFF3FFF3F21
:102FC000FF3FFF3FFF3FFF3FFF3FFF3FFF3FFF3F11
:102FD000FF3FFF3FFF3FFF3FFF3FFF3FFF3FFF3F01
:102FE000FF3FFF3FFF3FFF3FFF3FFF3FFF3FFF3FF1
:102FF000FF3FFF3FFF3FFF3FFF3FFF3FFF3FFF3FE1
:1030000083160313A41C1C28A41001306902FA00C3
:103010004A087A02031C1228031D182868084B026C
:10302000031C182801306902E7006808E6001C2824
:103030004A08E7004B08E600A41D3628A411013019
:103040006D02FA004A087A02031C2C28031D32285C
:103050006C084B02031C322801306D02EB006C0837
:10306000EA0036284A08EB004B08EA00241D4E28E7
:103070002411013067074A02031C4428031D4A2813
:103080004B086602031C4A2801306707E9006608FE
:10309000E8004E284A08E9004B08E800241E66288C
:1030A000241201306B074A02031C5C28031D6228AE
:1030B0004B086A02031C622801306B07ED006A08A6
:1030C000EC0066284A08ED004B08EC00031383125D
:1030D000AA197228051E7928BC0B7C28AA1583160C
:1030E00093147928051A7928BC0B7C28AA11831619
:1030F000931083120330BC002A198628851E8D2860
:10310000BB0B90282A15831613158D28851A8D2838
:10311000BB0B90282A118316131183120330BB00B6
:103120002B189A28891DA128AD0BA4282B148316CF
:103130009315A1288919A128AD0BA4282B1083165B
:10314000931183120330AD00003067075D0203184E
:10315000AF28023067025D02031CAF28B1285D086A
:10316000E7000530390772020318BC280530390220
:103170007202031CBC28BE287208B90000303A074E
:1031800051020318C92803303A025102031CC9280E
:10319000CB285108BA00031383160030710751027F
:1031A0000318D828023071025102031CD828DA28EB
:1031B0005108F100031383168B13321AFC2871088F
:1031C0006C3C031CE6283114B11002297108843CC0
:1031D000031CED283110B11402297108B33C031807
:1031E000FC28031718083102031CFC288430B100A6
:1031F00003133114B114022903178330B1000313F0
:103200003110B1108B17031383164F134808073979
:10321000023A03194F170313831648080739013A76
:10322000031D2329B01C2029831227192029861E5B
:103230001D298316B208031D202983128617292908
:103240008312861329298312871A28298617292988
:10325000861303138312061C3329AC1C4A298316D8
:10326000A018382942298316C812831287104A29C8
:103270008312A81A42298316C81D4229C816831230
:1032800087144A298316201D4A29481E4A29C81630
:103290008312871403138316B01865290317831646
:1032A0002A18652903138316B601B701B801B901BD
:1032B000D701D801DB01DC01DD01DE01DF01E00126
:1032C000E101E201C401C501CF12831603136E08A8
:1032D000FB006F08FA000310FB0DFA0DFB0DFA0D51
:1032E0007A080317AE0005302E02C80083160313B8
:1032F0002508FB002608FA000310FB0DFA0DFB0D54
:10330000FA0D7A0803179200053012029300031396
:103310008316301CEC296A08FB006B08FA000310C6
:10332000FB0DFA0DFB0DFA0DFB0DFA0D7A080317D4
:1033300099005C309A0003133A08FB003B08FA003E
:103340000310FB0DFA0DFB0DFA0DFB0DFA0D7A08BB
:1033500003179D00831603171D0819028312031318
:103360000318BF29831603171A081D0283120313BB
:10337000031CC329A71CC3298316B411C329A91E82
:10338000C3298316B415831603136C08FB006D085C
:10339000FA000310FB0DFA0DFB0DFA0DFB0DFA0DF3
:1033A0007A0803179B0065309C00831603171D08DD
:1033B0001B0283120313031CEA29831603171C083C
:1033C0001D02831203130318EC29A71CEC29831692
:1033D0003411EC2983163415031383122C1DFB2999
:1033E000AC1FFB292C11AC138316DB01DC01DD01C2
:1033F000DE01DF01E00103138312061C172A831686
:1034000062085802031C1A2A58086206031D0C2A77
:103410005708610203181A2A8312E01B1A2A83161E
:103420008B135708E1005808E2008B171A2A8316FD
:10343000E101E201031783162A183E2A03138312BF
:10344000061C3B2A831645083902031C3E2A39080C
:103450004506031D2F2A3808440203183E2A83120A
:10346000601B3E2A031383168B133908C5003808E6
:10347000C4008B173E2A8316C401C50103138312AF
:10348000601E7D2A6012271F512A271383168B1373
:103490005408D3006508D2000C30D400E430E500B5
:1034A0008B178312A718662A831654080C3C031C3A
:1034B0007D2A031D5F2A6508E43C031C7D2A8B13CB
:1034C0000C30D400E430E5008B177D2A83164808C1
:1034D0000739013A031D542A54080C3C031C7D2A69
:1034E000031D762A6508E43C031C7D2A8B130C30EF
:1034F000D400E430E5008B177D2A031383128A1170
:103500000A121D2FFF3FFF3FFF3FFF3FFF3FFF3FDF
:10351000FF3FFF3FFF3FFF3FFF3FFF3FFF3FFF3FBB
:10352000FF3FFF3FFF3FFF3FFF3FFF3FFF3FFF3FAB
:10353000FF3FFF3FFF3FFF3FFF3FFF3FFF3FFF3F9B
:10354000FF3FFF3FFF3FFF3FFF3FFF3FFF3FFF3F8B
:1042300000000000000000000000000000002E0050
:1042400003000100070000000B00010084001400BF
:10425000010091000B0000000200000000000000BF
:10426000000000000000000000000000000000004E
:10427000000000000000000000000000000000003E
:10428000000000000000000000000000000000002E
:10429000000000000000000000000000000000001E
:1042A000000000000000000000000000000000000E
:1042B00000000000000000000000000000000000FE
:1042C00000000000000000000000000000000000EE
:1042D00000000000000000000000000000000000DE
:1042E00000000000000000000000000000000000CE
:1042F00000000000000000000000000000000000BE
:1043000000000000000000000000000000000000AD
:10431000000000000000000000000000000000009D
:10432000000000000000000000000000000000008D
:10433000000000000000000000000000000000007D
:10434000000000000000000000000000000000006D
:10435000000000000000000000000000000000005D
:10436000000000000000000000000000000000004D
:10437000000000000000000000000000000000003D
:10438000000000000000000000000000000000002D
:10439000000000000000000000000000000000001D
:1043A000000000000000000000000000000000000D
:1043B00000000000000000000000000000000000FD
:1043C00000000000000000000000000000000000ED
:1043D00000000000000000000000000000000000DD
:1043E00000000000000000000000000000000000CD
:1043F00000000000000000000000000000000000BD
:04400E00CA23FF3F83
:08400000080008000E00060094
:00000001FF
